:020000040800F2
:1000000000000120D9090008290A0008290A00086F
:10001000290A0008290A0008290A0008000000002F
:10002000000000000000000000000000290A000895
:10003000290A000800000000290A0008290A00080F
:1000400000000000290A0008290A0008290A0008FF
:10005000290A0008290A0008290A0008290A0008B4
:10006000290A0008290A0008290A000800000000DF
:100070000000000000000000000000000000000080
:100080000000000000000000290A00080000000035
:10009000000000000000000000000000290A000825
:1000A000290A0008290A0008290A0008290A000864
:1000B000290A0008290A000800000000290A00088F
:1000C000290A0008290A0008290A0008290A000844
:1000D000290A0008000000000000000000000000E5
:1000E000290A0008290A0008290A0008000000005F
:1000F0000000000000000000000000000000000000
:1001000000000000290A000800000000290A000879
:1001100000000000000000000000000000000000DF
:1001200000000000000000000000000000000000CF
:1001300000000000000000000000000000000000BF
:10014000000000000000000000000000290A000874
:10015000000000000000000000000000000000009F
:10016000290A0008290A0008000000000000000019
:10017000000000000000000000000000000000007F
:1001800000000000290A0008000000000000000034
:04019000290A000830
:1001940010B5054C237833B9044B13B10448AFF3BD
:1001A40000800123237010BD4404002000000000DF
:1001B400900B000808B5034B1BB103490348AFF388
:1001C400008008BD0000000048040020900B0008D7
:1001D40080B582B000AF7860084611461A460346DF
:1001E400FB700B46BB7013467B703B7DF978012294
:1001F400786800F07FF93B7DB9780122786800F0D7
:1002040079F93B7D79780122786800F073F93B7DB8
:10021400397C0122786800F06DF900BF0837BD46CB
:1002240080BD000080B584B000AFF860B9601346AB
:10023400FB71FB79092B00F2578101A252F823F0DC
:100244006D020008AD020008ED0200082D0300084D
:100254006D030008AD030008ED0300082D04000839
:100264006D040008AD040008BB681B780022194621
:10027400F86800F0A5F9BB6801331B780022194621
:10028400F86800F09DF9BB6802331B780022194618
:10029400F86800F095F9BB6803331B78002219460F
:1002A400F86800F08DF920E1BB681B78012219463B
:1002B400F86800F085F9BB6801331B780022194601
:1002C400F86800F07DF9BB6802331B7800221946F8
:1002D400F86800F075F9BB6803331B7800221946EF
:1002E400F86800F06DF900E1BB681B78002219463C
:1002F400F86800F065F9BB6801331B7801221946E0
:10030400F86800F05DF9BB6802331B7800221946D7
:10031400F86800F055F9BB6803331B7800221946CE
:10032400F86800F04DF9E0E0BB681B78012219463B
:10033400F86800F045F9BB6801331B7801221946BF
:10034400F86800F03DF9BB6802331B7800221946B7
:10035400F86800F035F9BB6803331B7800221946AE
:10036400F86800F02DF9C0E0BB681B78002219463C
:10037400F86800F025F9BB6801331B7800221946A0
:10038400F86800F01DF9BB6802331B780122194696
:10039400F86800F015F9BB6803331B78002219468E
:1003A400F86800F00DF9A0E0BB681B78012219463B
:1003B400F86800F005F9BB6801331B780022194680
:1003C400F86800F0FDF8BB6802331B780122194677
:1003D400F86800F0F5F8BB6803331B78002219466F
:1003E400F86800F0EDF880E0BB681B78002219463D
:1003F400F86800F0E5F8BB6801331B780122194660
:10040400F86800F0DDF8BB6802331B780122194656
:10041400F86800F0D5F8BB6803331B78002219464E
:10042400F86800F0CDF860E0BB681B78012219463B
:10043400F86800F0C5F8BB6801331B78012219463F
:10044400F86800F0BDF8BB6802331B780122194636
:10045400F86800F0B5F8BB6803331B78002219462E
:10046400F86800F0ADF840E0BB681B78002219463C
:10047400F86800F0A5F8BB6801331B780022194620
:10048400F86800F09DF8BB6802331B780022194617
:10049400F86800F095F8BB6803331B78012219460D
:1004A400F86800F08DF820E0BB681B78012219463B
:1004B400F86800F085F8BB6801331B780022194600
:1004C400F86800F07DF8BB6802331B7800221946F7
:1004D400F86800F075F8BB6803331B7801221946ED
:1004E400F86800F06DF800E000BF00BF1037BD46AB
:1004F40080BD00BF80B483B000AF78600846114669
:100504001A460346FB700B46BB7013467B702B4B9D
:100514001A6B7B78012101FA03F3284913430B6317
:10052400BB78002B16D07B681A68FB785B0001212E
:1005340001FA03F31A437B681A607B681A68FB7834
:100544005B000133012101FA03F3DB431A407B68AA
:100554001A602CE07B681A68FB785B00012101FAC1
:1005640003F3DB431A407B681A607B681A68FB78E4
:100574005B000133012101FA03F3DB431A407B687A
:100584001A607B68DA68FB785B00012101FA03F3E7
:100594001A437B68DA607B68DA68FB785B000133B6
:1005A400012101FA03F3DB431A407B68DA6000BFE0
:1005B4000C37BD465DF8047B704700BF003802402D
:1005C40080B483B000AF78600B46FB701346BB70F9
:1005D4007B681A68FB785B00012101FA03F313407E
:1005E400002B18D0BB78002B09D07B685A69FB78A4
:1005F400012101FA03F31A437B685A6109E07B681D
:100604005A69FB78012101FA03F3DB431A407B6842
:100614005A61002300E0012318460C37BD465DF8FB
:10062400047B704780B483B000AF78600B46FB70E6
:100634007B681A68FB785B00012101FA03F313401D
:10064400002B0AD17B681A68FB785B000133012117
:1006540001FA03F31340002B01D0012300E000232F
:10066400002B0CD17B681A69FB78012101FA03F392
:100674001340002B01D001230FE000230DE07B6821
:100684005B69002B07D0FB78012202FA03F3002BED
:1006940001D0012300E00023DBB218460C37BD462D
:1006A4005DF8047B7047000080B500AF274B1978D4
:1006B400012301222648FFF71DFF244B597801230B
:1006C40001222348FFF716FF204B997801230122CA
:1006D4001F48FFF70FFF1D4BD978012301221C4847
:1006E400FFF708FF1B4B1978002300221A48FFF775
:1006F40001FF184B5978002300221748FFF7FAFE30
:10070400144B9978002300221348FFF7F3FE0F4B94
:100714001B78012219460E48FFF752FF0B4B5B78FA
:10072400012219460A48FFF74BFF084B9B78012228
:1007340019460748FFF744FF044BDB7801221946AA
:100744000348FFF73DFF00BF80BD00BF000000204D
:1007540000040240040000200000024080B582B082
:1007640000AF00237B6041E0244A7B6813441B787C
:10077400002219462248FFF723FF00233B6026E0AE
:10078400204A3B6813441B7819461F48FFF74AFF69
:100794000346002B16D11D497A6813465B001344A7
:1007A400CA183B6813441A78194B1A7000BF154ACB
:1007B4003B6813441B7819461348FFF733FF03467D
:1007C400002BF4D000F032F83B6801333B603B6807
:1007D400022BD5DD094A7B6813441B780122194694
:1007E4000748FFF7EDFE7B6801337B607B68032BD2
:1007F400BADD00BF0837BD4680BD00BF0000002041
:100804000004024004000020000002400800002010
:100814006004002080B400AF034B1B781846BD462B
:100824005DF8047B704700BF6004002080B500AF12
:10083400FFF7F0FF03461A4602490348FFF7F2FCAC
:1008440000BF80BD140000200000024080B582B0CB
:1008540002AF00230193032300930223012200210A
:100864000348FFF7B5FCFFF71FFFFFF777FFFCE72F
:100874000000024080B500AF164BD3F88830154A0B
:1008840043F47003C2F88830134B1B68124A43F0D8
:1008940001031360104B00229A600F4B1B680E4A31
:1008A40023F0847323F4803313600B4B0B4A5A6098
:1008B400094B1B68084A23F480231360064B00226B
:1008C400DA6000F00DF8034B4FF000629A6000BF4D
:1008D40080BD00BF00ED00E000380240103000246D
:1008E40080B483B000AF00237B6000233B60354BB2
:1008F4001B68344A43F480331360324B1B6803F49F
:1009040000333B607B6801337B603B68002B03D181
:100914007B68B3F5A04FF0D12A4B1B6803F4003376
:10092400002B02D001233B6001E000233B603B68C5
:10093400012B40D1234B1B6C224A43F08053136498
:10094400214B1B68204A43F4404313601D4B1D4A4E
:100954009B6893601B4B1B4A9B689360194B9B6875
:10096400184A43F480539360164B184A5A60154B47
:100974001B68144A43F08073136000BF114B1B685B
:1009840003F00073002BF9D0114B40F202721A608D
:100994000C4B9B680B4A23F003039360094B9B6841
:1009A400084A43F00203936000BF064B9B6803F0C0
:1009B4000C03082BF9D100BF0C37BD465DF8047B4E
:1009C400704700BF003802400070004019544107CE
:1009D400003C02400D4885460D480E490E4A00234E
:1009E40002E0D458C4500433C4188C42F9D30B4ADF
:1009F4000B4C002301E013600432A242FBD3FFF747
:100A040039FF00F011F8FFF721FFFEE70000012095
:100A14000000002044040020B80B00084404002017
:100A240088040020FEE7000070B50D4E0D4D761BC6
:100A3400B61006D00024013455F8043B9847A6426A
:100A4400F9D1094E094D761B00F0A0F8B61006D076
:100A54000024013455F8043B9847A642F9D170BDEF
:100A6400AC0B0008AC0B0008B40B0008AC0B00087E
:100A7400024B13B1024800F005B8704700000000B3
:100A8400950A0008002301461A46184600F01EB8CD
:100A940038B50A4C0A4D641BA4100AD004F18043F3
:100AA400013B05EB8305013C55F804399847002CBC
:100AB400F9D1BDE8384000F06FB800BFB80B0008AA
:100AC400B40B0008704700BF704700BF2DE9F8431E
:100AD4002B4D0646286898460F469146FFF7F2FFCD
:100AE400284B1C68D4F84831002B3DD05A681F2A83
:100AF4000DDC02F1010C16BB0232C3F804C02868F5
:100B040043F82270FFF7E0FF0020BDE8F8831E4B96
:100B14007BB34FF4C870AFF30080034648B3D4F8F6
:100B240048210021C0E900214FF0010CC4F848011C
:100B34000A46C0F88811C0F88C11002EDCD003EBF3
:100B440082010124C1F88890D3F88801944020439D
:100B5400022EC3F88801C1F80881CDD1D3F88C11D5
:100B64000C43C3F88C41C7E704F5A673C4F84831B5
:100B7400BCE72868FFF7A8FF4FF0FF30C5E700BFC8
:100B840040040020A80B000800000000F8B500BFD6
:100B9400F8BC08BC9E467047F8B500BFF8BC08BC5A
:040BA4009E467047B2
:040BA8001800002011
:080BAC00750A0008B9010008F8
:040BB400950100089F
:100BB80001020405050607000102030405060708EB
:100BC800092A00230001020300000000040300209A
:100BD8006C030020D4030020000000000000000087
:100BE80000000000000000000000000000000000FD
:100BF80000000000000000000000000000000000ED
:100C080000000000000000000000000000000000DC
:100C180000000000000000000000000000000000CC
:100C280000000000000000000000000000000000BC
:100C380000000000000000000000000000000000AC
:100C4800000000000000000000000000000000009C
:100C5800000000000000000000000000000000008C
:100C6800000000000000000000000000000000007C
:100C780001000000000000000E33CDAB34126DE619
:100C8800ECDE05000B000000000000000000000082
:100C9800000000000000000000000000000000004C
:100CA800000000000000000000000000000000003C
:100CB800000000000000000000000000000000002C
:100CC800000000000000000000000000000000001C
:040FF800640400206D
:04000005080009D90D
:00000001FF
